:020000040000FA
:060000000A128A110C280F
:10000800FE00030EF0000A08F1000A128A1598286B
:100018000A128A110F288313C230FD001730FE0020
:100028006130FF00A03084000A168A111D270A12C9
:100038008A110A128A11FC260A128A11E8000A1289
:100048008A11FD260A128A11E900563084006830A8
:100058000A168A11F0260A128A11FA01FB01830195
:100068000A128A150E2E83120313D0000A128A155B
:1000780020210A128A111230831203136506031D08
:1000880046284728E0290A128A1506270A128A11E3
:100098000A168A110C270A128A113830F60088309D
:1000A800F7008030F8000A168A11D1270A128A113F
:1000B8007B0883120313CA004A07A03E84008313F7
:1000C8000008F600840A00088403F7008630F80068
:1000D8000A168A11D1270A128A113130F60088309F
:1000E800F700C030F8000A168A11D1270A128A11BF
:1000F800C63083120313A0000A30F2000030F30068
:100108006408CA00CB014A08F4004B08F5000A123B
:100118008A1589220A128A117208303E0A168A1133
:100128002C270A128A11C73083120313A0000A3041
:10013800F2000030F3006408CA00CB014A08F4005A
:100148004B08F5000A128A1576210A128A117208DC
:10015800303E0A168A112C270A128A11C8308312D7
:100168000313A0003A300A168A112C270A128A11A2
:10017800C93083120313A0000A30F2000030F300E4
:100188006308CA00CB014A08F4004B08F5000A12BC
:100198008A1589220A128A117208303E0A168A11B3
:1001A8002C270A128A11CA3083120313A0000A30BE
:1001B800F2000030F3006308CA00CB014A08F400DB
:1001C8004B08F5000A128A1589220A128A11720848
:1001D800303E0A168A112C270A128A111A30F600A4
:1001E8008830F7009530F8000A168A11D1270A12CC
:1001F8008A11333083120313CC00BB30CB00DF30BD
:10020800CA00CA0B0529CB0B0529CC0B05290A16F0
:100218008A110C270A128A118630F6008730F700F7
:100228008030F8000A168A11D1270A128A112A305A
:10023800F6008830F700C030F8000A168A11D12776
:100248000A128A110030F6008730F700D030F80023
:100258000A168A11D1270A128A1183120313640815
:10026800CA00CB014A08F2004B08F3003C30F40006
:100278000030F5000A168A1183270A128A118312A0
:10028800031363087207D80000300318013073079E
:10029800D9005908E7005808E6005808F20059083C
:1002A800F3000030F31BFF30F400F50001300A12B0
:1002B8008A1568230A128A11750883120313AD0080
:1002C8007408AC007308AB007208AA003E30A9009D
:1002D800EB30A8008530A7001F30A6000A128A114B
:1002E800B7230A128A11831203132908C3002808A6
:1002F800C2002708C1002608C0000A128A15F02289
:100308000A128A11831203134108DD004008DC0039
:100318005808F2005908F3000030F31BFF30F400CE
:10032800F50001300A128A1568230A128A11750825
:1003380083120313AD007408AC007308AB00720895
:10034800AA003D30A900F530A800C230A7008F30C0
:10035800A6000A128A11B7230A128A1183120313FC
:100368002908C3002808C2002708C1002608C000C1
:100378000A128A15F0220A128A11831203134108FD
:10038800DF004008DE005C09CA005D09CB00CA0A2C
:100398000319CB0A5E084A02CC005F08031C5F0AF7
:1003A8004B02CD0058084C07DA0059080318590ABF
:1003B8004D07DB00071512151F305006031DE529F0
:1003C800E629EA29071112110530E9006408CA0074
:1003D800CB014A08F2004B08F3003C30F40000302F
:1003E800F5000A168A1183270A128A118312031349
:1003F80063087207D8000030031801307307D9006A
:1004080008307B020318092A0A2A612A5C08660256
:10041800CA005D08031C5D0A6702CB004B0859023D
:10042800031D182A4A085802031C1B2A1C2A282ABA
:100438006A30F6008830F7008B30F8000A168A1107
:10044800D1270A128A11EA2A5C09CA005D09CB0081
:10045800CA0A0319CB0A5A084A02CC005B08031CD3
:100468005B0A4B02CD0066084C07CE0067080318EC
:10047800670A4D07CF004F085902031D452A4E0849
:100488005802031C482A492A552A5330F600883056
:10049800F7008B30F8000A168A11D1270A128A1140
:1004A800EA2A4D30F6008830F7008B30F8000A163B
:1004B8008A11D1270A128A11EA2A08307B06031DFD
:1004C800662A672ACD2A6608F2006708F30000301A
:1004D800F31BFF30F400F50001300A128A15682377
:1004E8000A128A11750883120313AD007408AC0050
:1004F8007308AB007208AA003E30A900CC30A800EF
:10050800CC30A700CD30A6000A128A11B7230A12F0
:100518008A11831203132908C3002808C200270878
:10052800C1002608C0000A128A15F0220A128A1190
:10053800831203134108E7004008E6005908803A8F
:10054800CA006708803A4A02031DAC2A66085802A6
:10055800031CAF2AB02AC12A5330F6008830F700AE
:100568008B30F8000A168A11D1270A128A110A1646
:100578008A110C270A128A11EA2A4D30F6008830AF
:10058800F7008B30F8000A168A11D1270A128A114F
:10059800EA2A09307B06031DD22AD32ADF2A4D30E6
:1005A800F6008830F7008B30F8000A168A11D12738
:1005B8000A128A11EA2A6A30F6008830F7008B306E
:1005C800F8000A168A11D1270A128A11C630831236
:1005D8000313A0000A30F2000030F3006408CA00D8
:1005E800CB014A08F4004B08F5000A128A15892243
:1005F8000A128A117208303E0A168A112C270A122A
:100608008A11C73083120313A0000A30F2000030A9
:10061800F3006408CA00CB014A08F4004B08F5004F
:100628000A128A1576210A128A117208303E0A16B1
:100638008A112C270A128A11C83083120313A000CA
:100648003A300A168A112C270A128A11C9308312E5
:100658000313A0000A30F2000030F3006308CA0058
:10066800CB014A08F4004B08F5000A128A158922C2
:100678000A128A117208303E0A168A112C270A12A9
:100688008A11CA3083120313A0000A30F200003026
:10069800F3006308CA00CB014A08F4004B08F500D0
:1006A8000A128A1576210A128A117208303E0A1631
:1006B8008A112C270A128A11831203136308031D57
:1006C800662B672BB62B6408031D6B2B6C2BB62B84
:1006D800071112115030D100C330D2000130D102BD
:1006E8000030031CD203D202510A031D7F2B520A89
:1006F800031D7F2B802B722B87140A168A110C2757
:100708000A128A111130F6008730F7008030F8009D
:100718000A168A11D1270A128A115030F60087303A
:10072800F700C030F8000A168A11D1270A128A1178
:100738004D3083120313CC001930CB004F30CA0060
:10074800CA0BA42BCB0BA42BCC0BA42B8312031307
:100758008710E901E90A1030E5000A168A110C270A
:100768000A128A1108008312031329088039B3007A
:100778002908AE002E07B900A81FC32BC42BC52B10
:10078800391439080319C92BCA2BD92B390A031D67
:10079800CE2BCF2BD72B0030A9000030A80000307B
:1007A800A7000030A600A817E12B0030A9000030F0
:1007B800A8000030A7000030A6002D088039FF00EF
:1007C8007F08B3062D08AE002E07B400AC1FED2B32
:1007D800EE2BEF2B341434080319F32BF42B032CD2
:1007E800340A031DF82BF92B012C0030AD00003022
:1007F800AC000030AB000030AA00AC170B2C003066
:10080800AD000030AC000030AB000030AA00340866
:1008180003190F2C102C152C3908031D142C152C1A
:100828001E2C0030A9000030A8000030A7000030BE
:10083800A600FB2E2608F2002C080A168A11A82703
:100848000A128A11730883120313BF007208BE00CC
:100858003E08AE00AF01B001B1013108B800300860
:10086800B7002F08B6002E08B5003F08AE00AF014C
:10087800B001B1013108BD003008BC002F08BB0031
:100888002E08BA002708F2002B080A168A11A82792
:100898000A128A11730883120313BF007208BE007C
:1008A8003E08AE00AF01B001B1012E08B5072F0810
:1008B80003110318013E0319622CB607300803110F
:1008C8000318013E0319692CB707310803110318EF
:1008D800013E0319702CB8073F08AE00AF01B00104
:1008E800B1012E08BA072F0803110318013E031996
:1008F8007E2CBB07300803110318013E0319852C11
:10090800BC07310803110318013E03198C2CBD07DD
:100918002808F2002A080A168A11A8270A128A113A
:10092800730883120313BF007208BE003E08AE00AE
:10093800AF01B001B1012E08B5072F080311031844
:10094800013E0319A82CB607300803110318013E0D
:100958000319AF2CB707310803110318013E031917
:10096800B62CB8073F08AE00AF01B001B1012E08A0
:10097800BA072F0803110318013E0319C42CBB073B
:10098800300803110318013E0319CB2CBC073108AA
:1009980003110318013E0319D22CBD070830AE001D
:1009A8000310B50DB60DB70DB80DAE0BD42C270836
:1009B800F2002A080A168A11A8270A128A1173084F
:1009C80083120313BF007208BE003E08AE003F0842
:1009D800AF00B001B1012E08B5072F0803110318A5
:1009E800013E0319F82CB607300803110318013E1D
:1009F8000319FF2CB707310803110318013E031927
:100A0800062DB8072608F2002B080A168A11A8270F
:100A18000A128A11730883120313BF007208BE00FA
:100A28003E08AE003F08AF00B001B1012E08B5077F
:100A38002F0803110318013E0319232DB6073008A8
:100A480003110318013E03192A2DB70731080311B2
:100A58000318013E0319312DB8070830AE00031002
:100A6800B50DB60DB70DB80DAE0B332D2608F20037
:100A78002A080A168A11A8270A128A1173088312EB
:100A88000313BF007208BE003E08AE003F08AF0067
:100A9800B001B1012E08B5072F0803110318013E54
:100AA8000319572DB607300803110318013E03191F
:100AB8005E2DB707310803110318013E0319652D90
:100AC800B8072708F2002C080A168A11A8270A1264
:100AD8008A11730883120313BF007208BE003E0810
:100AE800AE003F08AF00B001B1012E08BA072F08C9
:100AF80003110318013E0319822DBB0730080311A7
:100B08000318013E0319892DBC0731080311031886
:100B1800013E0319902DBD072808F2002B080A167C
:100B28008A11A8270A128A11730883120313BF00B7
:100B38007208BE003E08AE003F08AF00B001B10128
:100B48002E08BA072F0803110318013E0319AD2D0B
:100B5800BB07300803110318013E0319B42DBC0765
:100B6800310803110318013E0319BB2DBD072808DE
:100B7800F2002C080A168A11A8270A128A1173088B
:100B880083120313BF007208BE003E08AE003F0880
:100B9800AF00B001B10108300310AE0DAF0DB00DBC
:100BA800B10DFF3E031DD02D2E08BA072F080311E3
:100BB8000318013E0319E12DBB0730080311031880
:100BC800013E0319E82DBC07310803110318013E43
:100BD8000319EF2DBD073508AE003608AF003708FA
:100BE800B0003808B10018300310B10CB00CAF0CCD
:100BF800AE0CFF3E031DF82D2E08BA072F0803116F
:100C08000318013E0319092EBB0730080311031806
:100C1800013E0319102EBC07310803110318013EC9
:100C28000319172EBD070830AE000310B50DB60D19
:100C3800B70DB80DAE0B192E39083407AE00AF0149
:100C4800AF0D2E08823EBE002F080318013EFF3E5E
:100C5800BF004B2E0130AE000310BA0DBB0DBC0D0A
:100C6800BD0DAE0B302EB81F3A2E3B2E3C2E3A143B
:100C78000130AE000310B50DB60DB70DB80DAE0BB3
:100C88003E2EFF30BE070318BF0AFF30BF07BC1F48
:100C98004E2E4F2E2E2EB401B81F532E542E702ECA
:100CA800FF303505AE00FF303605AF00FF303705A1
:100CB800B0007F303805B100310830042F042E040D
:100CC8000319672E682E6B2EB401B40A702E3A1CD5
:100CD8006E2E6F2E702E682E34080319742E752E02
:100CE800A62E0130BA07003003180130BB070030C8
:100CF80003180130BC07003003180130BD073D1C44
:100D0800862E872EA62E3A08AE003B08AF003C0878
:100D1800B0003D08B1000130B200310DB10CB00C8B
:100D2800AF0CAE0CB20B912E3108BD003008BC00E0
:100D38002F08BB002E08BA000130BE070318BF0AEF
:100D48000030BF073F08803AFF0080307F02031D54
:100D5800AF2EFF303E02031CB22EB32EBE2E7F30C4
:100D680083120313BD008030BC000030BB0000308C
:100D7800BA00EF2E831203133F08803AFF00803039
:100D88007F02031DC92E01303E020318CC2ECD2E42
:100D9800D92E003083120313BD000030BC00003090
:100DA800BB000030BA00B301EF2E831203133E08D4
:100DB800B900FF30BA05FF30BB057F30BC050030F5
:100DC800BD05391CE82EE92EEA2EBC173908AE00FD
:100DD80003102E0CBD003308FF007F08BD043D083A
:100DE800A9003C08A8003B08A7003A08A60008008C
:040DF800013401348D
:100E000035342D3453345434413452345434203432
:100E1000203436342D345034413455345334453431
:100E20000034503472346F3467342E3420344334F9
:100E30006F346D3470346C346534743465346434B8
:100E40000034573461347334683469346E34673431
:100E500020344D3461346334683469346E3465341D
:100E60000034773461347334683469346E346734F1
:100E70002034503472346F346734723461346D34DA
:100E800000345034723465347334733420344B344A
:100E90006534793420343534203454346F3400349C
:100EA000523465346D346F347634653420344334D1
:100EB0006C346F34743468346534733400345734AC
:100EC000613474346534723420344C34653476348F
:100ED00065346C343A34003450346C3465346134E5
:100EE00073346534203443346C346F347334653474
:100EF00000345034723465347334733420345334D2
:100F00007734693474346334683400344634753467
:100F10006E346334743469346F346E3420342D3459
:100F20002034003450346F3477346534723469348B
:100F30006E34673420344F344E34003444346F34CC
:100F40006F34723420343A3420346F347034653462
:100F50006E340034453463346F34203443346F349A
:100F6000743474346F346E347334003453345734FF
:100F700035343A34203453345434413452345434B4
:100F80000034413471347534613420345334743452
:100F90006F347234653400345334573436343A3451
:100FA0002034533454344F34503400345334743474
:100FB000613469346E3477346134733468340034A6
:100FC000443465346C346934633461347434653466
:100FD00073340034423465346434733468346534B3
:100FE0006534743473340034573461347334683482
:100FF00020344F346E346C347934003452346934D4
:101000006E34733465342B344434723479340034A0
:1010100050346F3477346534723420344F344E3466
:10102000003444347234793420344F346E346C34A8
:101030007934003428344D344D343A3453345334F5
:101040002934003457346F346F346C3465346E3463
:1010500073340034543449344D3445343A342034F4
:101060000034543469346D3465343A3420340034F7
:10107000503472346F3467343A34203400344D3491
:1010800065346434693475346D34003457346834ED
:1010900069347434653473340034533470346934CF
:1010A0006E3420340034523469346E347334653411
:1010B00000344434613469346C3479340034483455
:1010C00065346134763479340034483469346734B3
:1010D0006834003457346134733468340034413434
:1010E000753474346F3400344C346F3477340034D6
:0810F0004D3461347834003402
:1010FE000A168A11EA260A128A150A168A11012779
:10110E000A128A158316031307118710831203130D
:10111E0087100A168A11F8260A128A150B178B17D2
:10112E000800831203138C1C9D289E28C6280130AC
:10113E00D6070318D70A0030D707203056064E3090
:10114E0003195706031DAC28AD28C528D601D701B3
:10115E0063080319B328B428B7280130E302C52861
:10116E006308031DBB28BC28C52864080319C028C2
:10117E00C128C5280130E4023B30E3008C10710811
:10118E008A00700E8300FE0E7E0E0900C330F7003B
:10119E00CD30F600F60BD128F70BD128F201333003
:1011AE000A168A1141270A128A151B30F7009E3043
:1011BE00F600F60BE028F70BE0280000F2013330C2
:1011CE000A168A1141270A128A15A630F600F60B66
:1011DE00EE280000F20133300A168A1141270A1256
:1011EE008A15F928FA280000F20130300A168A1101
:1011FE0041270A128A15A630F600F60B04290000C4
:10120E00F20101300A168A1141270A128A15A630F8
:10121E00F600F60B10290000F2010C300A168A11A6
:10122E0041270A128A15A630F600F60B1C2900007B
:10123E00080083120313061825292629752907117C
:10124E00121187140A168A110C270A128A159E305B
:10125E00F6008730F7008030F8000A168A11D12781
:10126E000A128A156C30F6008730F700C030F8008D
:10127E000A168A11D1270A128A1583120313061C25
:10128E0049294A2944290A168A110C270A128A1555
:10129E008630F6008730F7008030F8000A168A1183
:1012AE00D1270A128A152A30F6008830F700C0308E
:1012BE00F8000A168A11D1270A128A150030F60094
:1012CE008730F700D030F8000A168A11D1270A129B
:1012DE008A15831203130715871012150800F701DC
:1012EE00F51F7A297B298229F409F509F40A0319D5
:1012FE00F50AF701F70AF31F852986298B29F209CA
:10130E00F309F20A0319F30A7208730403199029F8
:10131E009129C029F601F60A9F2901300310F20D1A
:10132E00F30DFF3E031D95290130FF007F08F607E0
:10133E00F31FA229A329942973087502031DA92955
:10134E0072087402031CAC29AD29B3297208F40289
:10135E007308031CF503F50201300310F30CF20CB5
:10136E00FF3E031DB4290130F602031DBF29C0291B
:10137E00A32977080319C429C529CA29F409F5092F
:10138E00F40A0319F50A7508F3007408F200080050
:10139E0083120313A5012508803EA000FF300A1614
:1013AE008A112C270A128A150130FF007F0883123A
:1013BE000313A50710302502031CE629E729D229BD
:1013CE009230F6008730F700C230F8000A168A1104
:1013DE00D1270A128A152130F6008730F700913096
:1013EE00F8000A168A11D1270A128A1583120313DE
:1013FE00A6012608D03EA000FF300A168A112C271F
:10140E000A128A150130FF007F0883120313A60704
:10141E0010302602031C142A152A002A1A308312B1
:10142E000313A4005E30A3006D30A200A20B1D2A90
:10143E00A30B1D2AA40B1D2A242A0A168A110C2777
:10144E000A128A150800F3007308031D2F2A302A8A
:10145E00352A8312031306083F39882A3F30831238
:10146E0003130605F2003F30720603193F2A402A85
:10147E004B2A68080319442A452A4B2AE801E2013F
:10148E0006083F39E000872A6808031D4F2A502AB4
:10149E00622A06083F396006031D562A572A622A19
:1014AE001430620203185C2A5D2A622A0130FF00A2
:1014BE007F08E207872A14306206031D672A682A0E
:1014CE006F2A0130FF007F08E20760088038882A03
:1014DE003F300605F2003F307206031D772A782A48
:1014EE00872A6808031D7C2A7D2A872AE801E80AD4
:1014FE00143062020318842A852A872A6008882AF3
:10150E003F300800F701F31F8D2A8E2A952AF20923
:10151E00F309F20A0319F30AF701F70AF51F982ADD
:10152E00992AA22AF409F509F40A0319F50A0130D9
:10153E00FF007F08F706F801F9017208730403191A
:10154E00A92AAA2AE12AF601F60AB82A01300310BE
:10155E00F20DF30DFF3E031DAE2A0130FF007F0892
:10156E00F607F31FBB2ABC2AAD2A01300310F80D73
:10157E00F90DFF3E031DBD2A73087502031DC92A0E
:10158E0072087402031CCC2ACD2AD42A7208F402E3
:10159E007308031CF503F502781401300310F30CE5
:1015AE00F20CFF3E031DD52A0130F602031DE02A80
:1015BE00E12ABC2A77080319E52AE62AEB2AF8095C
:1015CE00F909F80A0319F90A7908F3007808F20004
:1015DE000800031083120313420D430DC90049087E
:1015EE00031DFA2AFB2A042B0030C3000030C20070
:1015FE000030C1000030C000672B4008C400410815
:10160E00C5004208C6004308C7001F300310C70CB0
:10161E00C60CC50CC40CFF3E031D0D2B4408C800A0
:10162E00C217FF30C005FF30C105FF30C2050030C4
:10163E00C3059630C902C91F252B262B402B4908FE
:10164E00803A973E03182C2B2D2B2E2BFB2A013084
:10165E000310C30CC20CC10CC00CFF3E031D2F2B7C
:10166E000130FF007F08C907031D3E2B3F2B2E2B99
:10167E00572B20304902031C452B462B522BFB2A9D
:10168E000130C4000310C00DC10DC20DC30DC40B3B
:10169E00492B0130C9024908031D562B572B472BE6
:1016AE00480803195B2B5C2B672BC009C109C209C3
:1016BE00C309C00A0319C10A0319C20A0319C30ACE
:1016CE00080083120313A000200803196F2B702B40
:1016DE00842BF51F732B742B842B7209A2007309B4
:1016EE00A3007409A4007509A500A20A0319A30A90
:1016FE000319A40A0319A50A8C2B7508A5007408F2
:10170E00A4007308A3007208A20075087404730481
:10171E007204031D932B942B9D2B0030F50000308B
:10172E00F4000030F3000030F200212C9630A100BE
:10173E00AD2B0130FF007F08A10701300310A50C6F
:10174E00A40CA30CA20CFF3E031DA52BFE302505F9
:10175E00031DB22BB32BA02BCF2B0130FF007F0824
:10176E00A1070130A207003003180130A307003093
:10177E0003180130A407003003180130A50701300B
:10178E000310A50CA40CA30CA20CFF3E031DC72B2B
:10179E00FF302505031DD42BD52BB42BE12B0130A7
:1017AE00A1020130F6000310A20DA30DA40DA50D8C
:1017BE00F60BDA2BA41BE42BE52BEB2B02302102CC
:1017CE000318EA2BEB2BD62B2118EE2BEF2BF72B36
:1017DE00FF30A205FF30A3057F30A405FF30A5051D
:1017EE000310A10C2108F600F701F801F9011830D9
:1017FE000310F60DF70DF80DF90DFF3E031DFF2B2F
:10180E007608A2047708A3047808A4047908A5042E
:10181E0020080319132C142C192CF51F172C182C17
:10182E00192CA5172508F5002408F4002308F30049
:10183E002208F200080083120313A400103065067C
:10184E00031D2A2C2B2C312C0A168A110C270A1256
:10185E008A15FB013730831203132406031D382C1F
:10186E00392C492C0A168A110C270A128A150130B6
:10187E00FF007F08FB070C307B06031D472C482C0E
:10188E00492CFB013130F6008730F7008030F8002C
:10189E000A168A11D1270A128A15C0308312031331
:1018AE00A0002A300A168A112C270A128A150A302D
:1018BE007B020318632C642CA42C7B088312031365
:1018CE00A2002207A03E840083130008F600840ABB
:1018DE0000088403F700C230F8000A168A11D127D7
:1018EE000A128A157B0883120313A2002207A23E56
:1018FE00840083130008F600840A00088403F700AE
:10190E009230F8000A168A11D1270A128A157B081E
:10191E0083120313A2002207A43E8400831300083F
:10192E00F600840A00088403F700D230F8000A1685
:10193E008A11D1270A128A15172D0A307B06031D2C
:10194E00A92CAA2CE22C7B0883120313A2002207D7
:10195E00A03E840083130008F600840A0008840366
:10196E00F700C230F8000A168A11D1270A128A151A
:10197E007B0883120313A2002207A23E8400831366
:10198E000008F600840A00088403F7009230F8007D
:10199E000A168A11D1270A128A15831603132008F4
:1019AE00F6002108F700D230F8000A168A11D12766
:1019BE000A128A15172D0B307B06031DE72CE82C17
:1019CE00172D7B0883120313A2002207A03E84006A
:1019DE0083130008F600840A00088403F700C2305F
:1019EE00F8000A168A11D1270A128A1583160313D4
:1019FE002008F6002108F7009230F8000A168A1126
:101A0E00D1270A128A15831603132208F60023081B
:101A1E00F700D230F8000A168A11D1270A128A1559
:101A2E00080083120313A40011306506031D202D38
:101A3E00212D272DFA010A168A110C270A128A1552
:101A4E003730831203132406031D2E2D2F2D3F2D09
:101A5E000130FF007F08FA0705307A06031D382D86
:101A6E00392D3A2DFA010A168A110C270A128A15F7
:101A7E005F30F6008730F7008030F8000A168A11C2
:101A8E00D1270A128A15C03083120313A0002A3000
:101A9E000A168A112C270A128A1503307A020318A5
:101AAE00592D5A2D9A2D7A0883120313A20022075C
:101ABE00B83E840083130008F600840A00088403ED
:101ACE00F700C230F8000A168A11D1270A128A15B9
:101ADE007A0883120313A2002207BA3E84008313EE
:101AEE000008F600840A00088403F7009230F8001C
:101AFE000A168A11D1270A128A157A08831203133D
:101B0E00A2002207BC3E840083130008F600840A5C
:101B1E0000088403F700D230F8000A168A11D12784
:101B2E000A128A150D2E03307A06031D9F2DA02D45
:101B3E00D82D7A0883120313A2002207B83E840020
:101B4E0083130008F600840A00088403F700C230ED
:101B5E00F8000A168A11D1270A128A157A088312FA
:101B6E000313A2002207BA3E840083130008F60076
:101B7E00840A00088403F7009230F8000A168A11CE
:101B8E00D1270A128A15831603133A08F6003B086A
:101B9E00F700D230F8000A168A11D1270A128A15D8
:101BAE000D2E04307A06031DDD2DDE2D0D2E7A0846
:101BBE0083120313A2002207B83E84008313000889
:101BCE00F600840A00088403F700C230F8000A16F3
:101BDE008A11D1270A128A15831603133808F600C4
:101BEE003908F7009230F8000A168A11D1270A1226
:101BFE008A15831603133A08F6003B08F700D23015
:101C0E00F8000A168A11D1270A128A1508000A123C
:101C1E008A157F200A128A1501300A128A152A2285
:101C2E000A128A154130F6008730F7008130F8002D
:101C3E000A168A11D1270A128A150830F600883042
:101C4E00F700C430F8000A168A11D1270A128A1535
:101C5E002130F6008730F7009130F8000A168A110D
:101C6E00D1270A128A154F2EB83083120313D300D0
:101C7E000B30D4000130D3020030031CD403D40245
:101C8E00530A031D4E2E540A031D4E2E4F2E412E67
:101C9E0001300A128A152A220A128A152F3A031DBA
:101CAE00592E5A2E3B2E0A128A15CF210A128A1548
:101CBE0001300A128A152A220A128A158312031378
:101CCE00D500B7305506031D6D2E6E2E782E690386
:101CDE00031D722E732E782E0230E9001130E500AE
:101CEE00B32EB7305506031D7D2E7E2EB32E023039
:101CFE006906031D832E842EB32E0A128A1506271B
:101D0E000A128A15033083120313E9000A168A1188
:101D1E000C270A128A157930F6008730F7008130C9
:101D2E00F8000A168A11D1270A128A15B630F60063
:101D3E008730F700C130F8000A168A11D1270A122F
:101D4E008A15CC30F6008730F7009130F8000A166D
:101D5E008A11D1270A128A152F30831203135506C2
:101D6E00031DBA2EBB2EF12E05306906031DC02EA3
:101D7E00C12EF12E121507150430E900F12E55086B
:101D8E000A128A1522240A128A15FF2E55080A12E3
:101D9E008A1518250A128A15FF2E2F305506031D97
:101DAE00D92EDA2EDF2E0430E9001230E5005F2E38
:101DBE001F305506031DE42EE52EFF2EE901E90A1C
:101DCE001030E5005F2E55080A128A1137200A12CC
:101DDE008A15FF2E6908013A0319C62E033A031914
:101DEE00CD2E013A0319D42E073A0319EA2EFF2EEF
:101DFE0083120313E5015F2E0A128A110C28D92FC4
:101E0E00213083120313E300E401FF2F2C308312E1
:101E1E000313E3000B2F2D3083120313E3000B2F5C
:101E2E007A08003A03190D2F013A0319072F033AC6
:101E3E0003190D2F013A0319122F073A0319122F06
:101E4E00FF2F2B3083120313E3000B2F323083123C
:101E5E000313E3000B2F393083120313E3000B2F10
:101E6E007A08003A03192D2F013A0319282F033A45
:101E7E0003192D2F013A0319322F073A0319322F66
:101E8E00FF2F1A3083120313E300E401642F1F3077
:101E9E0083120313E3004C2F7A08003A0319482FDC
:101EAE00013A0319482F033A0319482F013A03192F
:101EBE004E2F073A03194E2F642F1030831203133F
:101ECE00E300E401E40AFF2F243083120313E3003E
:101EDE00682F243083120313E3000B2F1D3083125F
:101EEE000313E3000B2F2E3083120313E3000B2F8B
:101EFE00353083120313E3000B2F83120313E30118
:101F0E00682F7A08003A03197F2F013A03197A2FA6
:101F1E00033A03197F2F013A0319842F073A031945
:101F2E00842FFF2F123083120313E3000B2F143074
:101F3E0083120313E3000B2F7A08003A03199E2F26
:101F4E00013A0319992F033A03199E2F013A0319E7
:101F5E009E2F073A03199E2FFF2F0630831203136D
:101F6E00E3000B2F103083120313E3000B2F1530F9
:101F7E0083120313E3000B2F1A3083120313E300B3
:101F8E000B2F7A08003A0319BE2F013A0319B92F05
:101F9E00033A0319BE2F013A0319C32F073A031947
:101FAE00C32FFF2F7B08003A0319172F013A03198D
:101FBE00372F033A0319532F013A0319642F073AA7
:101FCE0003196B2F013A0319702F033A0319752F5A
:101FDE00013A0319882F0F3A0319A32F013A031957
:101FEE00B42F033A0319C82F013A0319C82FFF2F34
:101FFE000800FF1B0A2883137F1883170008840A22
:10200E000319FF0A08007F087F398A000408840A32
:06201E000319FF0A820015
:102DD4008316031306083F38860008006400800148
:102DE400840A0406031900340406F12EFA3083160B
:102DF400031392008C148312031312110800831618
:102E040003138801091189100A128A15CD200A16A4
:102E14008A110800F20101300A168A1141270A16A4
:102E24008A11A630F600F60B152F000008007E0864
:102E34008A007F0882000A168A1119270A168A1145
:102E44008000840A04087D0603190034FF0A03196C
:102E5400FE0A1D2F83120313A100F20120080A1693
:102E64008A1141270A168A11F201F20A8312031306
:102E740021080A168A1141270A168A110800F5004A
:102E84007218452F492F8312031309154C2F8312EF
:102E940003130911750888008914A630F300F30B95
:102EA400512F00008312031389101B30F4009E304D
:102EB400F300F30B5B2FF40B5B2F00000800593475
:102EC40088345F348834E034873446348834D634E4
:102ED4008734AA34873422348834EA348734FE347D
:102EE400873411348834F4348734C13487346F34EC
:102EF4008834743488343F3488346534883478347E
:102F04008834F601F701721C882F892F8F2F7408DB
:102F1400F6070318F70A7508F70701300310F40DD4
:102F2400F50DFF3E031D902F01300310F30CF20C3E
:102F3400FF3E031D972F72087304031DA22FA32FB6
:102F4400852F7708F3007608F20008008312031334
:102F5400A400A001A1017208F400F5017408A20004
:102F64007508A300241CB72FB82FBE2F2208A00772
:102F74000318A10A2308A10701300310A20DA30D11
:102F8400FF3E031DBF2F0310A40C2408031DCB2FE9
:102F9400CC2FB42F2108F3002008F2000800F2011E
:102FA40078080A168A1141270A168A11EF2FF201AE
:102FB400F20A7708FF00760884000A168A110020B6
:102FC4000A168A110A168A1141270A168A11013033
:102FD400F6070318F70A0030F7077708831203137C
:102FE400FF00760884000A168A1100200A168A1146
:0C2FF400003A031DFE2FFF2FD92F08000C
:02400E00FB3F76
:00000001FF
